:020000040800F2
:10000000A80C002099010008174C0008C9480008F6
:10001000154C0008E5120008615F000800000000B0
:10002000000000000000000000000000394E000841
:10003000A914000800000000214D0008C555000863
:10004000B3010008B3010008B3010008B3010008C0
:10005000B3010008B3010008B3010008B3010008B0
:10006000B3010008B3010008B3010008B3010008A0
:10007000B3010008B3010008B3010008B301000890
:10008000B3010008B301000801110008B301000822
:10009000B3010008B3010008B3010008B301000870
:1000A000B3010008B3010008B3010008B301000860
:1000B000B30100083556000841560008B301000896
:1000C000B3010008B3010008B3010008B301000840
:1000D000B3010008495F0008555F0008B30100083C
:1000E000B3010008B3010008B3010008B301000820
:1000F000B3010008B3010008B3010008B301000810
:10010000B3010008B30100084D560008B301000810
:10011000ED5B0008B301000859560008B301000860
:10012000B3010008B3010008B3010008B3010008DF
:10013000B30100080000000000000000B301000847
:10014000B3010008B3010008B3010008B3010008BF
:10015000B3010008B3010008B3010008B3010008AF
:10016000B3010008B3010008B3010008B30100089F
:10017000B3010008B3010008000000000000000007
:10018000B3010008DFF80CD000F03EFF0048004744
:1001900099730008A80C00200648804706480047CD
:1001A000FEE7FEE7FEE7FEE7FEE7FEE7FEE7FEE727
:1001B000FEE7FEE731560008850100082DE9F05FF3
:1001C0000546002092469B468846064681464024C6
:1001D0001BE0284641464746224600F024FD534690
:1001E0005A46C01A914110D311461846224600F0D3
:1001F0000BFD2D1A67EB01084F4622460120002116
:1002000000F002FD17EB00094E41201EA4F101048D
:10021000DFDC484631462A464346BDE8F09FA0F160
:100220004101192900D82030704700000649074ACB
:100230000868504343F23902104408604008704790
:100240000149086070470000A40000206D4EC641BF
:1002500040EA01039B0703D009E008C9121F08C048
:10026000042AFAD203E011F8013B00F8013B521EC8
:10027000F9D27047D2B201E000F8012B491EFBD23F
:1002800070470022F6E710B513460A4604461946A1
:10029000FFF7F0FF204610BD421E12F8013F002B71
:1002A000FBD111F8013B02F8013B002BF9D170475B
:1002B00030B505462A460B4612F8010B13F8014BE0
:1002C00008B1A042F8D01CB1002802D06D1CF1E7A3
:1002D000284630BD421C10F8011B0029FBD1801AB2
:1002E000704710B5002200E0521C835C8C5CA34276
:1002F00001D1002BF8D1D8B2E1B2401A10BD30B50F
:1003000005460020034600E05B1C934205D2EC5CEE
:10031000C85C201A01D1002CF6D130BD70B50F4D4C
:1003200000B92868002412E00A4602E09E4203D089
:10033000521C1378002BF9D1DAB2224305D02BB12D
:1003400024B1002100F8011B04E00446401C06789B
:10035000002EE9D12860204670BD0000A8000020D2
:100360002DE9FF4F087881B09946FF2805D0491C38
:100370002D2804D00024002308E000230BE00124F2
:10038000F9E703EB830300EB4303491C0878FF28DC
:10039000F7D104B15B4200200090147801462D2C67
:1003A00001D02B2C04D1521C2D2C12D000240094EF
:1003B00000251678FF2E0ED00A24A0FB04C801FBEE
:1003C0000481002700FB0711521C16EB0C00694149
:1003D000EFE70124EBE7994450EA01020ED0002434
:1003E000AA4D2646DFF8A88200F0E9FD82468B463A
:1003F000B9F1000009DAC9F100071BE001980021FA
:10040000C0E9001105B0BDE8F08F074612E0F8071B
:1004100007D022462B463046414600F0B9FA064640
:10042000884622462B461046194600F0B1FA04468B
:100430000D467F10002FEAD1B9F1000F3246434636
:100440005046594602DA00F04BFD01E000F0A0FAF8
:10045000009A0AB181F00041019AC2E90001D1E796
:100460002DE9FF4F1F468DB0D7E901464FF0FF3809
:100470002E2045464FF000090B90B9696D1C0E986F
:100480008847396A824688470028F6D1BAF1FF3F8B
:100490000AD024F4D064002E11DDBAF12B0F08D05D
:1004A000BAF12D0F0BD102E0404611B0ABE744F496
:1004B0008064B9696D1C0E9888478246761E69462D
:1004C000600501D52D2000E02B208DF8000001F102
:1004D000010B0DF1200809E0B9696D1C0E988847E1
:1004E00082460F9844F40074761E0560002E02DDEB
:1004F000BAF1300FF0D00B998A453ED144F0800418
:1005000006E00F99681CA9F1010944F40074086021
:10051000B9696D1C761E0E98884782463028F0D047
:100520002BE00B998A4505D1200603D444F08004C2
:10053000761E18E0504605F0F9FE08B30DF11301E0
:10054000761E44F400748B4508D2AAF130000BF8F3
:10055000010B200607D5A9F1010003E0200602D413
:1005600009F101008146A00502D50F99681C0860B9
:10057000B9696D1C0E9888478246002ED1DC53E085
:10058000002E51DDBAF1650F02D0BAF1450F4BD103
:10059000A00549D5B9696D1C24F44074761E0E98E7
:1005A00088478246002E0CDD2B2804D0BAF12D0F8F
:1005B00007D144F48074B9696D1C0E98884782464F
:1005C000761EE00501D52D2100E02B2108F8011B46
:1005D000CDF82C8021E00DF12901761E44F4007441
:1005E00088450CD2AAF1300010F0FF0088F8000016
:1005F00002D10B99884509D908F1010806E0E00508
:1006000001D5244801E042F20F708146B9696D1CA2
:100610000E98884782460F980560002E04DD5046EC
:1006200005F084FE0028D6D1F9690E988847FF208E
:100630008BF8000088F800000020069007904B46D9
:100640006A4608A906A8FFF78BFEA00502D46FF042
:1006500001002AE714F0240F0AD0E00714D1DDE9E5
:1006600006123868031D3B600068C0E900120BE009
:10067000DDE9060100F096FA0146E00704D138688A
:10068000021D3A600068016028460EE70000244021
:100690000000F03FF1D8FFFF70B5064605F0AEFC54
:1006A000046805460A220021304600F04DFB2C600C
:1006B00070BDF0B480EA0102D40F4200B2EB410FEA
:1006C00002D20246084611464A0042D0C30DDDB2AE
:1006D000C1F3C752AD1A202D35DAC1F3160141F42A
:1006E000000204B15242C5F1200602FA06F12A4185
:1006F0001044B3EBD05F23D0C4B1012DA0EBC350A5
:1007000009DCF0BC4FF0004202EAC352DBB200F554
:10071000000000F05ABB400000F1807000EBC350B5
:10072000A0F1807040EAD170490009E0490841EA2F
:10073000C071A0EBC35000F50000400800EBC350AF
:10074000F0BC00F039BB6142012202EB4101001B09
:10075000F6E7F0BC704781F00041AAE780F0004066
:10076000A7E780EA010210B502F00043400022D062
:100770004A001FD0010E01EB1261C0F35600C2F314
:10078000560240F4000042F40002A0FB02200004E4
:100790007F39140400D0401C50EA124001D44000BC
:1007A000491EC2B20C0604EBD010401C4008802A3F
:1007B00002D003E0002010BD20F00100002900DA83
:1007C0000020184310BD30B480EA010202F0004559
:1007D00030F0004221F0004013D090B1C30DD40D91
:1007E000C2F31601C0F31600E41A41F4000140F40C
:1007F00000027D34914201D3641C00E04900002CCA
:1008000002DA30BC002070474FF400000023914210
:1008100001D3891A034340084FEA4101F7D151B18E
:10082000914202D14FF0004105E002D24FF00101A8
:1008300001E06FF0010103EBC450284430BC00F02C
:10084000BBBA2DE9FE4F804681EA0300C00F0C467B
:10085000009021F0004123F00045B8EB0200A941CF
:1008600005D24046214690461C460B46024623F0E0
:100870000040104347D0270DC7F30A00C3F30A51C5
:100880000290401A019040286BDAC3F3130040F441
:10089000801B0098924620B10023D2EB030A63EB41
:1008A0000B0B01985946C0F14002504600F0ACF9DC
:1008B00006460D4650465946019A00F0C4F910EB21
:1008C00008006141002487EA115284EAE7731A4361
:1008D00040D0009A62B3019A012A4FEA075215DC10
:1008E000001B61EB02014FF0004202EA0752CDE922
:1008F0000042001C41F5801132462B4600F0A2FA5E
:1009000003B0BDE8F08F40462146F9E7001B61EBDC
:100910000201001C41F5801300185B412018A2F56C
:10092000001747EB030140EAD570B6196D4111E09D
:100930006D084FEA360645EAC0754FEA0752001BBC
:1009400061EB0201001C41F5801149084FEA3000BB
:100950000019514132462B4603B0BDE8F04F00F07C
:1009600062BA0098012240000023D0EB020263EB40
:10097000E073009821464FEAE074B8EB000061EBA9
:100980000401E9E783F000435BE781F0004158E7A9
:100990002DE9FE4F81EA030404F0004421F00041F8
:1009A00000944FF0000B23F0004350EA01045ED0A6
:1009B00052EA03045BD0C3F30A54C1F30A552C4432
:1009C000A4F2F3340194A0FB0254C1F3130141F4E7
:1009D0008011C3F3130343F4801301FB024400FBB3
:1009E000034E840A970A44EA815447EA8357A4FBDA
:1009F000076802958D0A05FB07854FEA932C04FBD7
:100A00000C542705029D4FEA065847EA1637B5EB06
:100A100008056EEB070C870E920E47EA811742EA33
:100A20008312A7FB0201B6EB0B0164EB00042B0D54
:100A300043EA0C335E1844EB1C50DA465146E7FBA0
:100A40000201C5F313044FEA0B3343EA14534FEA90
:100A50000432019C43EA0603A4F10C040294009CB6
:100A6000CDE900B400F0EEF903B0BDE8F08F00204E
:100A70000146F9E770B521F0004303430CD0C1F300
:100A80000A550024D5EB040564EB0403D617AD1A10
:100A9000B34102DB0020014670BD201841EB02513A
:100AA00070BDC10F80EAE0700844CA079623002198
:100AB00000F08BB996230022114600F086B90EB5DE
:100AC000C10F80EAE0700844CA07002140F23343B6
:100AD0008DE80E000A460B4600F0B4F903B000BDE5
:100AE00070B5C1F30A5201F000450024C1F31301AF
:100AF00040F2FF3341F480119A4201DA002070BDC8
:100B000040F233439A42A2F2334203DC524200F0F5
:100B10008AF800E090402C43F1D0404270BD00F0D4
:100B2000004230F000400AD0C10D01F56071C0F301
:100B3000160042EA0151C2084007114370470020E5
:100B40000146704730B5041E71F1000404DB4FF01C
:100B50000044404264EB0101141E73F1000405DB04
:100B60001C464FF00043524263EB04038B4208BF24
:100B7000824230BD30B5041E71F1000404DB4FF039
:100B80000044404264EB0101141E73F1000405DBD4
:100B90001C464FF00043524263EB0403994208BFE6
:100BA000904230BD01F0004330B421F0004150EAE2
:100BB000010206D00A0DA2F56072C1F31301002AEA
:100BC00002DC30BC00207047440F44EAC104C1007D
:100BD000E01830BC00EBC25000F0EEB830B50B4668
:100BE000014600202022012409E021FA02F59D425D
:100BF00005D303FA02F5491B04FA02F52844151E31
:100C0000A2F10102F1DC30BD202A04DB203A00FA17
:100C100002F1002070479140C2F1200320FA03F353
:100C2000194390407047202A04DB203A21FA02F051
:100C30000021704721FA02F3D040C2F12002914016
:100C4000084319467047202A06DBCB17203A41FAA1
:100C500002F043EAE07306E041FA02F3D040C2F149
:100C600020029140084319467047426842B101682A
:100C700011F8013B23B1521EC0E90012184670471B
:100C80000121C160881E704742685AB1C36801687B
:100C900043B983688B4205D0491E521CC0E900123B
:100CA000002070474FF0FF30704700000FB4002362
:100CB00000B589B00CA900910B996FF00042CB6090
:100CC0001E4B06931E4B07930423CDE901321D4AA8
:100CD000089202466B460020FFF7C2FB09B05DF8A0
:100CE00014FB70B586B006464FF0FF300091CDE999
:100CF0000101002015460C4604903246694604A8BE
:100D0000FFF7D4FF02460498211825B108B1084620
:100D100000E020462860049800280DD0002A02DD5B
:100D20000098884208D0081B0094CDE9010432469F
:100D3000694604A8FFF7BAFF06B070BD6B0C000847
:100D4000890C0008351000082DE9F04791460F4640
:100D500080460446002614F8015B2DB100F066F9C8
:100D60000068405DC007F6D12B2D02D02D2D18D084
:100D7000641E4A463946204600F065F927B13968B5
:100D8000A14201D1C7F8008071054FF002040BD5D4
:100D90004042002803DD05F031F90460A007BDE8FA
:100DA000F08746F48066E4E70028F8DA05F026F9D3
:100DB00004606FF00040F2E70029A8BF7047401CB4
:100DC000490008BF20F00100704710B4B0FA80FC61
:100DD00000FA0CF050EA010404BF10BC704749B19E
:100DE000CCF1200421FA04F411FA0CF118BF01210E
:100DF00021430843A3EB0C01CB1D4FEA00614FEAEE
:100E0000102042BF002010BC704700EBC3501044BC
:100E10000029A4BF10BC7047401C490008BF20F047
:100E2000010010BC704710B5141E73F1000408DAFD
:100E3000401C41F1000192185B411A4301D120F09E
:100E4000010010BD2DE9F04D92469B4611B1B1FA5B
:100E500081F202E0B0FA80F220329046FFF7D4FE31
:100E600004460F4640EA0A0041EA0B0153465A463F
:100E7000084313D0114653EA010019D0C8F14002CB
:100E80005046FFF7D0FE05460E46504659464246AC
:100E9000FFF7BAFE084305D0012004E0204639469A
:100EA000BDE8F08D0020054346EAE0762C43374349
:100EB0000A986305E40AA0EB08000022FD0A44EA50
:100EC00047540A3002D500200146E9E70105101910
:100ED0006941DDE9084500196941BDE8F04DA2E727
:100EE0002DE9F04D81EA030404F0004B21F00045A8
:100EF00014464FF0000A23F0004150EA050220D0CA
:100F000054EA01021DD0C5F30A570246C5F3130384
:100F1000C1F31300C1F30A5640F4801543F4801363
:100F2000A7EB0608101BD64608F2FD3873EB050048
:100F300002D308F1010801E092185B41B8F1000FFB
:100F400003DA00200146BDE8F08D00204FF4801147
:100F5000064684460EE0171B73EB050705D3121BEC
:100F600063EB050306434CEA010C49084FEA3000E5
:100F700092185B4150EA0107EDD152EA030012D00A
:100F800082EA040083EA0501084305D0101BAB4147
:100F900006D20122002306E000224FF0004302E0C7
:100FA0006FF0010253101AEB06004CEB085110EBE6
:100FB0000A0041EB0B01BDE8F04DFFF734BF0EB561
:100FC00040F2334202920022CDE900221346FFF79D
:100FD00039FF03B000BDC1F30A52C1F3130140F25F
:100FE000FF3341F480119A4202DA00200146704733
:100FF00040F233439A42A2F2334202DC5242FFF7FC
:1010000012BEFFF701BE0000064C074D06E0E06887
:1010100040F0010394E8070098471034AC42F6D33F
:10102000FFF7B4F8B07C0008D07C00080048704797
:10103000547C000810B50446FFF7F8FF0068005D17
:1010400000F0010010BD2DE9F05F82460078002716
:1010500015468B460AF10104B946302801D09DB1EE
:1010600013E014F8010B0127782803D0582801D089
:1010700045B10AE00DB1102D07D10027102514F855
:10108000010B02E0082500E00A250026B0460EE02C
:1010900005FB080005FB06F1012701EB10461FFACE
:1010A00080F8B6F5803F00D3B94614F8010B294605
:1010B00000F018F80028EBDABBF1000F05D00FB1F3
:1010C000641E00E05446CBF80040B9F1000F06D092
:1010D00004F094FF02210160C81EBDE8F09F48EAB9
:1010E0000640FAE73A2800D2303820F02002412AA0
:1010F00001D3A2F13700884201D34FF0FF3070478F
:10110000014800F075BC0000BC00002010B504468A
:101110005048D0F8041321F44031C0F80413D0F83B
:10112000041362681143C0F804132068416821F475
:101130008071416020684168226941EA0221416072
:101140002068416821F04071416020684168A268D0
:10115000114341602068816821F40061816020684A
:101160008168E26811438160A06A6FF07061C842D3
:101170002068816821F070618160206881680CD0EE
:10118000A26A114381602068816821F0405181602A
:1011900020688168E26A114301E021F040518160DA
:1011A0002068816821F00201816020688168227EC8
:1011B00041EA4201816094F8200000B3606A401E59
:1011C000072804D940F24F7123A005F063FD206881
:1011D000416841F4006141602068416821F4604148
:1011E0004160206842684FF46043616A93FAA3F358
:1011F000B3FA83F3491E99400A43426004E0206831
:10120000416821F4006141602068C16A21F47001E5
:10121000C1622068C16AA28B1D4B03EB02521143CD
:10122000C1622068816821F4007181602068816852
:1012300094F8302041EA422181602068816821F4DD
:101240008061816020688168626941EA82218160F1
:1012500010BD0000002001402E2E2F4472697665DB
:1012600072732F53544D3332463278785F48414C75
:101270005F4472697665722F5372632F73746D3396
:1012800032663278785F68616C5F6164632E6300F8
:101290000000F0FF1FB50020029003900A2000908C
:1012A000012001906946044800F0B0FA002801D0FE
:1012B00072B6FEE71FBD0000BC0000201FB5002075
:1012C000029003900D20009001200190694604488F
:1012D00000F09CFA002801D072B6FEE71FBD0000A6
:1012E000BC000020FEE700002DE9FF4FFFB098464C
:1012F00091468246DDF830B2FEF798FF642190FBFC
:10130000F1F201FB1202002001464CAB65AC01ADCD
:101310001AAE33AF19542154295431543954401C56
:101320006428F7DB40A1204604F044FE3FA14CA80E
:10133000FEF7B2FF65A94CA8FEF7AEFF3CA101A8DD
:10134000FEF7AAFF4CA901A8FEF7A6FF3EA101A83F
:10135000FEF7A2FF494601A8FEF79EFF3AA101A8A9
:10136000FEF79AFF414601A8FEF796FF37A101A8B4
:10137000FEF792FF37A101A8FEF78EFF36A101A864
:10138000FEF78AFF35A11AA8FEF786FF51461AA874
:10139000FEF782FF35A11AA8FEF77EFF1AA88099F2
:1013A000FEF77AFF32A11AA8FEF776FF32A133A822
:1013B000FEF772FF594633A8FEF76EFF32A133A83D
:1013C000FEF76AFF052441F2883500232A4630A142
:1013D00001A8009403F096FE4FF47A76304600F0B0
:1013E000D9FF05F037FD00232A462AA11AA8009448
:1013F00003F088FE304600F0CDFF05F02BFD002302
:101400002A4623A133A8009403F07CFE304600F066
:10141000C1FF05F01FFD23490120C86008700DF5CC
:10142000037DBDE8F08F00002564000045535000A7
:1014300041542B4D515454555345524346473D302A
:101440002C312C2200000000222C2200222C302CD7
:10145000302C0000222200000D0A000041542B4DC8
:10146000515454434F4E4E3D302C2200222C00004C
:101470002C310D0A0000000041542B4D515454539F
:1014800055423D302C220000222C300D0A00000075
:101490004F4B00002B4D515454434F4E4E45435437
:1014A00045440000000000207047000070B505466C
:1014B00008680C46122804D940F21B31C0A005F080
:1014C000E9FB6068401E032804D94FF44771BCA0B3
:1014D00005F0E0FBA06890B1012810D002280ED0E2
:1014E00003280CD004280AD0052808D0062806D0E6
:1014F000072804D040F21D31B1A005F0CBFBBF4E50
:10150000A06998B3B0F5803F30D0B0F5003F2DD042
:10151000B0F5403F2AD0B0F5802F27D0B0F5A02FEE
:1015200024D0B0F5C02F21D0B0F5E02F1ED0B0F5FB
:10153000002F1BD0B0F5102F18D0B0F5202F15D0EC
:10154000B0F5302F12D0B0F5402F0FD0B0F5502F9E
:101550000CD0B0F5602F09D0B0F5702F06D0B04296
:1015600004D040F21E3196A005F094FB2069401E85
:10157000032804D940F21F3191A005F08BFB607D58
:1015800030B1012804D04FF448718DA005F082FBE2
:10159000207D30B1012804D040F2213188A005F02F
:1015A00079FB2868406810F0407009D0B0F1807F66
:1015B0000BD0B0F1007F0DD0B0F1407F0ED010E025
:1015C000E068B0F5805F11D30BE0E068B0F5806FA4
:1015D0000CD306E0E068FF2808D902E0E0683F2865
:1015E00004D940F2253176A005F054FBA069B04241
:1015F0000FD0E06968B1B0F5801F0AD0B0F5001FC8
:1016000007D0B0F5401F04D040F22A316CA005F09D
:1016100041FB95F83C00012819D0012085F83C00D9
:10162000206807212A68092813D9D3680A3800EBF3
:10163000400081408B43D3602078A1680A3800EBDA
:10164000400081402868C2681143C16010E0022058
:1016500070BD136900EB400081408B43136120781B
:10166000A16800EB400081402868026911430161D4
:101670002868816B21F4401181632868816B228A7C
:101680005F4B03EB0252114381632079217C401AA6
:10169000C01C00EB80001F2181402868826B8A43B8
:1016A00082632079217C401AC01C00EB80012088D5
:1016B00080B2884029688A6B10438863A069B04271
:1016C0002868816821F470218160286881680CD0C5
:1016D000A269114381602868816821F4401181600A
:1016E00028688168E269114301E021F440118160BA
:1016F000607D00282868416802D041F4806101E0E3
:1017000021F480614160207D00282868416802D072
:1017100041F4805101E021F480514160606801286A
:1017200015D002281ED00328286826D0016A6FF33E
:101730000B0101622868016AE268114301623148C5
:101740002968814229D12168122920D025E0286802
:1017500041696FF30B01416128684169E2681143F7
:101760004161ECE7286881696FF30B0181612868AA
:101770008169E26811438161E1E7C1696FF30B019F
:10178000C1612868C169E2681143C161D7E7D0F837
:10179000041341F48001C0F80413296881420AD17E
:1017A0002168102901D0112905D1D0F8041341F482
:1017B0000001C0F80413002085F83C0070BD000053
:1017C0002E2E2F447269766572732F53544D333227
:1017D000463278785F48414C5F4472697665722F73
:1017E0005372632F73746D3332663278785F686139
:1017F0006C5F6164635F65782E63000001000F0019
:101800000000F0FF0020014070470000F8B50026FE
:101810000546009608680C46122804D940F2496132
:101820005FA005F037FA6068401E0F2804D940F227
:101830004A615BA005F02EFAA06890B1012810D093
:1018400002280ED003280CD004280AD0052808D07E
:10185000062806D0072804D040F24B6150A005F0BE
:1018600019FA95F83C00012819D0012085F83C00B0
:10187000216807202A68092913D9D3680A3901EB9E
:10188000410188408343D3602078A1680A3800EB87
:10189000400081402868C2681143C16010E0022006
:1018A000F8BD136901EB410188408343136120783F
:1018B000A16800EB40008140286802691143016182
:1018C00060681F21072813D22A68536B401E00EB63
:1018D000800081408B435363208881B22079401E71
:1018E00000EB800081402868426B1143416327E090
:1018F0002A680D2812D2136BC01F00EB80008140B4
:101900008B43136321792088C91F80B201EB8101C9
:10191000884029680A6B1043086311E0D36A0D38C8
:1019200000EB800081408B43D362217920880D3900
:1019300080B201EB810188402968CA6A1043C862FD
:1019400025482968814208D12168122905D1D0F89B
:10195000041341F48001C0F80413296881421AD1AC
:101960002168102901D0112915D1D0F8041341F4B0
:101970000001C0F80413206810280CD1174818493A
:101980000068B0FBF1F000EB8000400000E0401E7A
:1019900000900028FBD185F83C600020F8BD0000D5
:1019A0002E2E2F447269766572732F53544D333245
:1019B000463278785F48414C5F4472697665722F91
:1019C0005372632F73746D3332663278785F686157
:1019D0006C5F6164632E6300002001408C00002076
:1019E00040420F00704770470068C06C70470000AD
:1019F00070B50446007E30B1012804D040F2934116
:101A000059A005F047F9E069401E0F2804D940F2BB
:101A1000944155A005F03EF96069012807D030B126
:101A2000022804D040F295414FA005F033F9206818
:101A300001684268C1F34001C2F3401251B34AB396
:101A4000216CC90603D4216C41F4007121648168C2
:101A500011F0405F17D1217EA9B9C16A11F4700F4E
:101A600002D0816849050ED4416821F0200141600F
:101A7000206C20F480702064206CC00403D4206C9F
:101A800040F0010020642046FFF7ACFF21686FF0B2
:101A900012000860206801684268C1F38001C2F347
:101AA000C01289B382B3216CC90603D4216C41F4FE
:101AB00000512164816811F4401F1ED1816B11F423
:101AC000401F02D08168490517D44168490514D4E4
:101AD000816811F0405F10D1217E71B9416821F019
:101AE00080014160206C20F480502064206CC0058F
:101AF00003D4206C40F0010020642046FFF784FEF0
:101B000021686FF00C00086020680168426811F0DD
:101B1000010FC2F380120ED06AB10068C0070AD06C
:101B2000206C40F480302064204600F049F92168A0
:101B30006FF001000860206801684268C1F340113D
:101B4000C2F3806200290DD0002A0BD0616C41F0F5
:101B5000020161646FF0200505602046FFF743FF36
:101B60002068056070BD00002E2E2F4472697665D6
:101B700072732F53544D3332463278785F48414C5C
:101B80005F4472697665722F5372632F73746D337D
:101B900032663278785F68616C5F6164632E6300DF
:101BA0002DE9F04704004FF000057DD07249206810
:101BB00088420AD07149884207D07149884204D0CE
:101BC00040F243116FA005F065F8606868B1B0F5A8
:101BD000803F0AD0B0F5003F07D0B0F5403F04D0B9
:101BE0004FF4A27167A005F055F8A0684FF0807718
:101BF0004FF000784FF0407950B1B84208D04045DE
:101C000006D0484504D040F245115EA005F042F8E8
:101C1000206930B1012804D04FF4A37159A005F018
:101C200039F8207E30B1012804D040F2471155A088
:101C300005F030F8614EA06A80B3B8422ED040451E
:101C40002CD048452AD0B0F1806F27D0B0F1A06FDA
:101C500024D0B0F1C06F21D0B0F1E06F1ED0B0F150
:101C6000006F1BD0B0F1106F18D0B0F1206F15D0FD
:101C7000B0F1306F12D0B0F1406F0FD0B0F1506FB3
:101C80000CD0B0F1606F09D0B0F1706F06D0B042E7
:101C900004D04FF4A4713BA004F0FCFFE06848B10D
:101CA000B0F5006F06D000E043E040F2491135A0E6
:101CB00004F0F0FFE069401E0F2804D94FF4A5712D
:101CC00030A004F0E7FF94F8300030B1012804D0D0
:101CD00040F24B112BA004F0DDFF6069012807D012
:101CE00030B1022804D04FF4A67126A004F0D2FF30
:101CF00094F8200030B1012804D040F24D1121A009
:101D000004F0C8FFA06AB0420FD0E06A68B1B0F139
:101D1000805F0AD0B0F1005F07D0B0F1405F04D01F
:101D200040F2511117A004F0B5FF206C002618B145
:101D300008E00120BDE8F087204600F043F8666423
:101D400084F83C60206CC00610D4206C20F48850CD
:101D500040F0020020642046FFF7D8F96664206C4A
:101D600020F0020040F00100206400E0012584F82A
:101D70003C602846DEE700000020014000210140D1
:101D8000002201402E2E2F447269766572732F5304
:101D9000544D3332463278785F48414C5F44726923
:101DA0007665722F5372632F73746D333266327897
:101DB000785F68616C5F6164632E63000100000FEF
:101DC0007047000010B586B0044614216846FEF73F
:101DD00058FA15492068884224D114480021026825
:101DE00042F480620260006800F4806005900F4851
:101DF0001438026842F004020260006800F0040037
:101E00000590092000900320CDE9010169460848AA
:101E100000F0D2FA00221146122000F02FFD12200D
:101E200000F0FAFC06B010BD002201404438024028
:101E30000008024038B5002504460095007E30B108
:101E4000012804D04FF4357136A004F023FFE06A76
:101E500068B1B0F1805F0AD0B0F1005F07D0B0F197
:101E6000405F04D040F2D5212EA004F013FF94F877
:101E70003C00012807D0012084F83C0020688168DC
:101E8000C90702D011E0022038BD816841F001018C
:101E90008160324832490068B0FBF1F000EB40004D
:101EA00000E0401E00900028FBD120688168C9072F
:101EB0002ED0216C40F20162914341F48071216483
:101EC0004168490505D5216C21F4005141F4805148
:101ED0002164216CC90404D5616C21F006016164A0
:101EE00000E0656484F83C506FF0220101601D49F8
:101EF000D1F80403C006206801D0884210D181685F
:101F000011F0405F0CD1816841F08041816007E0B1
:101F1000206C40F010002064606C40F001006064B0
:101F2000002038BD2E2E2F447269766572732F53B0
:101F3000544D3332463278785F48414C5F44726981
:101F40007665722F5372632F73746D3332663278F5
:101F5000785F68616C5F6164632E63008C000020B1
:101F600040420F000020014010B5044600681549AA
:101F700088420AD01449884207D01449884204D0C4
:101F800040F23F3112A004F085FE94F83C00012895
:101F90000CD0012084F83C002068816821F0010108
:101FA000816020688068C00702D007E0022010BD71
:101FB000206C20F4885040F001002064002084F858
:101FC0003C0010BD002001400021014000220140E2
:101FD0002E2E2F447269766572732F53544D33320F
:101FE000463278785F48414C5F4472697665722F5B
:101FF0005372632F73746D3332663278785F686121
:102000006C5F6164632E6300704700002DE9F0414E
:102010000B6816460D460446A3B1242B12D00C2B98
:1020200010D0142B0ED01C2B0CD0042B0AD02C2B30
:1020300008D0342B06D03C2B04D040F2B3311BA087
:1020400004F028FE686830B1022804D04FF46D71A6
:1020500016A004F01FFE36B1102E04D040F2B531A8
:1020600012A004F017FE607901281CD001276771C7
:10207000022020712368186806F0100240F6FE71F5
:1020800091408843D5E900152943914001431960E7
:1020900020680168C02393409943016027710020A4
:1020A0006071BDE8F0810220FBE700002E2E2F4476
:1020B0007269766572732F53544D33324632787895
:1020C0005F48414C5F4472697665722F5372632F8B
:1020D00073746D3332663278785F68616C5F646107
:1020E000632E6300704770B50446006801684FF0C6
:1020F0000405890411D5416B89040ED52571216928
:1021000041F001012161E90241632068016821F485
:10211000805101602046FFF7E5FF206801688900D3
:1021200014D5416B890011D52571216941F0020157
:1021300021614FF0005141632068016821F0805116
:1021400001602046BDE87040FFF75EBF70BD000033
:1021500070B504000CD00D492068884204D04FF4BB
:1021600092710BA004F096FD2079002510B105E0D6
:10217000012070BD6571204600F026F80220207114
:10218000256101202071002070BD00000074004016
:102190002E2E2F447269766572732F53544D33324D
:1021A000463278785F48414C5F4472697665722F99
:1021B0005372632F73746D3332663278785F68615F
:1021C0006C5F6461632E630010B586B00446142111
:1021D0006846FEF756F815492068884224D114480D
:1021E0000021026842F000520260006800F00050D6
:1021F00005900F481038026842F001020260006842
:1022000000F001000590102000900320CDE90101AD
:102210006946084800F0D0F800221146362000F048
:102220002DFB362000F0F8FA06B010BD0074004017
:10223000403802400000024070B50D00044606D050
:10224000102D04D040F2C31116A004F023FD6079D4
:1022500001281CD0012060710221217121680E68C3
:1022600005F0100200FA02F31E430E60216885B1EA
:102270000B6803F470153C2393409D4203D14A68D8
:1022800042F002024A6020710020607170BD02209D
:1022900070BD0A68C2F383020F2AF4D14A6842F083
:1022A0000102EFE72E2E2F447269766572732F5369
:1022B000544D3332463278785F48414C5F447269FE
:1022C0007665722F5372632F73746D333266327872
:1022D000785F68616C5F6461632E63002DE9F04193
:1022E0000446876D00F038FA064694F8350000255C
:1022F000022806D08020606584F834500120BDE8B3
:10230000F0812068016821F01601016020684169B0
:1023100021F080014161206C08B9A06C20B12068D7
:10232000016821F0080101602068016821F00101C5
:1023300001600CE000F010FA801B052807D920206E
:102340006065032084F8350084F83450D7E72068AE
:102350000068C007EED194F85C103F208840B86058
:10236000012084F8350084F834500020C7E790F845
:102370003510022903D080214165012070470521D5
:1023800080F835100068016821F00101016000202B
:102390007047000031B500F0DFF9009C0546601C75
:1023A00002D004480078044400F0D6F9401BA04253
:1023B000FAD338BD800000202DE9F84FDFF8C08245
:1023C0000027DFF8C092DFF8C0B20D460446404552
:1023D00019D04C4517D05C4515D0AC48844212D07A
:1023E000AB4884420FD0AB4884420CD0AA48844208
:1023F00009D0AA48844206D0A948844203D0B0211B
:10240000A8A004F047FC28680104090C01D0000CC6
:1024100003D0B121A3A004F03DFC68684FF0030A8B
:1024200000281FD00128FCD01128FAD00228F8D0AB
:102430001228F6D0B0F5881FF3D0B0F5041FF0D005
:10244000B0F5441FEDD0B0F5901FEAD0B0F5081FED
:10245000E7D0B0F5481FE4D00328E2D0B22191A024
:1024600004F018FC04E10120B840009006407CD044
:10247000287900F00300012801D002281DD1E86866
:1024800048B1012807D0022805D0032803D0C02175
:1024900084A004F0FFFBA06879000AFA01F29043DF
:1024A000EA688A400243A260616800988143287903
:1024B000C0F30010B840084360602879C04380072B
:1024C00012D0A86838B1012805D0022803D0D02145
:1024D00074A004F0DFFBE26879000AFA01F082439D
:1024E000A86888401043E060287900F003000228C3
:1024F00048D1444519D04C4517D05C4515D06348A8
:10250000844212D0624884420FD0624884420CD088
:102510006148844209D06148844206D060488442C0
:1025200003D0DE215FA004F0B5FB2869D8B10928EB
:1025300019D0012817D0022815D0032813D0042859
:1025400011D005280FD006280DD007280BD0082859
:1025500009D00A2807D00C2805D00F2803D0DF2186
:1025600050A004F097FBF80800E080E004EB800244
:10257000116A7807C30E0F2098408143286998405C
:1025800008431062216878000AFA00F291432A7920
:1025900002F0030282400A432260686810F4403F60
:1025A00065D04F48016841F480410160006827F020
:1025B000030100F4804000904A480A18D2F8081835
:1025C000B807030F0F2098408143444501D10020F4
:1025D00026E04C4501D1012022E05C4501D10220DA
:1025E0001EE02A48844201D1032019E02848844291
:1025F00001D1042014E02748844201D105200FE0D6
:102600002548844201D106200AE02448844201D1B1
:10261000072005E02248844201D1082000E009207B
:1026200098400843C2F808082F4908686A68B04310
:10263000D20300D5304308602B49091D08686A6839
:10264000B043920300D53043086027490831086839
:102650006A68B043D20200D53043086022490C3189
:1026600008686A68B043920200D5304308607F1C56
:102670002E6836FA07F07FF4F6AEBDE8F88F00005A
:10268000000002400004024000080240000C02402A
:10269000001002400014024000180240001C0240DA
:1026A000002002402E2E2F447269766572732F53DC
:1026B000544D3332463278785F48414C5F447269FA
:1026C0007665722F5372632F73746D33326632786E
:1026D000785F68616C5F6770696F2E63000000004F
:1026E0004438024000300140003C014070B51546BE
:1026F0000C00064604D14FF4D07108A004F0CAFAC9
:1027000045B1012D04D040F2A11104A004F0C2FA99
:10271000B46170BD2004B06170BD00002E2E2F4446
:102720007269766572732F53544D3332463278781E
:102730005F48414C5F4472697665722F5372632F14
:1027400073746D3332663278785F68616C5F67707E
:10275000696F2E6300000000014880687047000028
:10276000800000200248816802781144816070472F
:10277000800000200B4810B5016841F40071016031
:10278000016841F480610160016841F48071016079
:10279000032000F0C3F8002000F006F800F024F851
:1027A000002010BD003C024070B50D4D04464FF4B2
:1027B0007A712878B1FBF0F00A490968B1FBF0F0B2
:1027C00000F0A6FC48B9102C07D200222146501E6A
:1027D00000F054F800206C6070BD012070BD000056
:1027E000800000208C0000200A4808B5016841F4F0
:1027F00080410160006800F4804000900548001F9F
:10280000016841F080510160006800F08050009044
:1028100008BD00004438024010B5040003D5BE21B5
:1028200007A004F037FA002C09DB04F01F01012097
:1028300088406109890001F1E021C1F8000110BD63
:102840002E2E2F447269766572732F53544D333296
:10285000463278785F48414C5F4472697665722FE2
:102860005372632F73746D3332663278785F6861A8
:102870006C5F636F727465782E63000070B51546E7
:102880000C460646102A03D3AA2114A004F002FA2B
:10289000102C03D3AB2111A004F0FCF91E480068F2
:1028A000C0F30223C3F107022046042A00D9042200
:1028B000191D072901D2002300E0DB1E012404FAC0
:1028C00002F1491E014099409C40641E2C40214366
:1028D0003046BDE8704003F081BB00002E2E2F442F
:1028E0007269766572732F53544D3332463278785D
:1028F0005F48414C5F4472697665722F5372632F53
:1029000073746D3332663278785F68616C5F636FC1
:10291000727465782E6300000CED00E010B504467B
:1029200007280BD0062C09D0052C07D0042C05D085
:10293000032C03D0922108A004F0ACF9154904F04F
:10294000070208684FF6FF03184040EA0220124AC7
:102950001043086010BD00002E2E2F44726976656A
:1029600072732F53544D3332463278785F48414C5E
:102970005F4472697665722F5372632F73746D337F
:1029800032663278785F68616C5F636F7274657805
:102990002E6300000CED00E00000FA052DE9F04781
:1029A0000E4604007ED02068401E0E2804D94FF445
:1029B00034717BA004F06EF996B1012E10D0022E76
:1029C0000ED0032E0CD0042E0AD0052E08D0062ED1
:1029D00006D0072E04D040F2D12171A004F05AF99C
:1029E000DFF8F481D8F80000F7B200F00F00B04231
:1029F00007D288F80070D8F8000000F00F00B0424D
:102A00007DD12068754D810729D5400703D52868F9
:102A100040F4E05028602078000703D5286840F48F
:102A200060402860A068A0B1802812D0902810D003
:102A3000A0280ED0B0280CD0C0280AD0D02808D0AA
:102A4000E02806D0F02804D040F2F52154A004F08C
:102A500021F92868A16820F0F00008432860207858
:102A6000C0073FD0DFF874916068A9F1080968B128
:102A700001281ED0022820D04FF43F7148A004F056
:102A800009F96068012814D0022816D0D9F800008E
:102A90008007002833DA2868616820F003000843C3
:102AA000286000E02BE0FFF757FE814641F2883AAC
:102AB00011E0D9F800008003EBE7D9F800008001AD
:102AC000E7E700BFFFF748FEA0EB0901514502D937
:102AD0000320BDE8F0872868616800F00C00B0EBC7
:102AE000810FEFD1D8F80010404601F00F01B1423C
:102AF00007D90770006800F00F00B04201D0012034
:102B0000E7E720784FF4805640074FF4A0574FF482
:102B1000C0584FF4E05914D5E06860B1B0420AD013
:102B2000B84208D0404506D0484504D040F239317B
:102B30001BA004F0AFF82868E16820F4E0500843D7
:102B400028602078000715D5206960B1B0420AD00E
:102B5000B84208D0404506D0484504D04FF45071E3
:102B60000FA004F097F82868216920F4604040EA3B
:102B7000C100286000F06AF82968F02292FAA2F2F7
:102B800001F0F001B2FA82F2D140154A515CC8401E
:102B90001449086014480068FFF706FE002098E713
:102BA0002E2E2F447269766572732F53544D333233
:102BB000463278785F48414C5F4472697665722F7F
:102BC0005372632F73746D3332663278785F686145
:102BD0006C5F7263632E6300003C02400838024061
:102BE000767B00088C0000208400002008480949FA
:102BF000006809684FF4E05292FAA2F201F4E05141
:102C0000B2FA82F2D140044A515CC84070470000D9
:102C10008C00002008380240867B000808480949DB
:102C2000006809684FF4604292FAA2F201F4604130
:102C3000B2FA82F2D140044A515CC84070470000A9
:102C40008C00002008380240867B0008154810B52B
:102C5000006810F00C02144813D01449042A0FD055
:102C6000082A0ED10F4C241F2268236802F03F026D
:102C70005B0207D52068C0F38810A0FB010106E0C5
:102C8000084610BD2168C1F38811A1FB0001002393
:102C9000FDF794FA2168C1F30141491C4900B0FBDA
:102CA000F1F010BD083802400024F40040787D01A6
:102CB0002DE9F84F04007DD020680F2804D94FF487
:102CC000B171FEA003F0E6FFDFF828B42078ABF185
:102CD0000406C007A6F1040540D0606840B1012891
:102CE00006D0052804D040F26711F4A003F0D2FF0B
:102CF000DBF800105846C1F38101012907D00068B4
:102D0000C0F38100022809D13068400206D5286846
:102D1000800323D560680028CDD01FE0F5492079D5
:102D2000891F0870606860B1FFF716FD074604E070
:102D3000FFF712FDC01B64287ED828688003F7D5F2
:102D40000CE0FFF709FD074605E000BFFFF704FDB3
:102D5000C01B6428F0D828688003F7D42078DFF8F7
:102D6000988380074FF0000954D5E06830B10128FE
:102D700004D040F29911D1A003F08CFF20691F28E4
:102D800004D94FF4CD71CDA003F084FFDBF800101F
:102D9000584611F00C0F4FF0F80A07D00068C0F346
:102DA000810002280BD13068400208D428688007CF
:102DB00016D500E07FE0E06801287CD110E0E068F3
:102DC000D0B10120C8F80000FFF7C6FC074604E0B8
:102DD000FFF7C2FCC01B0228AED828688007F7D5D1
:102DE00028689AFAAAF22169B2FA82F220F0F80071
:102DF0009140084328600DE0C8F80090FFF7ACFC54
:102E0000074604E0FFF7A8FCC01B022894D82868F6
:102E10008007F7D42078000731D5DFF8D8A2B74F64
:102E200060690AF16C0AD8B1012808D04FF4ED713D
:102E3000A2A003F02FFF00E01BE1606980B1012038
:102E40003860FFF789FC074605E000BFFFF784FC08
:102E5000C01B0228C0D8DAF800008007F6D50EE0C3
:102E6000C7F80090FFF778FC074604E0FFF774FC12
:102E7000C01B0228B0D8DAF800008007F6D420780A
:102E800040076BD5A068002740B1012806D005286F
:102E900004D040F2062189A003F0FCFEDFF854A222
:102EA0000AF1380ADAF80000C0000DD4DAF8001090
:102EB00041F0805100E0FFE0CAF80010DAF80000AD
:102EC000012700F0805000908D48016841F4807126
:102ED00001600168C90511D4016841F48071016085
:102EE000FFF73AFC009005E0FFF736FC0099401A26
:102EF00002288BD882480068C005F5D57D49207A24
:102F000068310870A06888B1FFF726FC009007E0E0
:102F1000FFF722FC0099411A41F28830814299D88A
:102F20007448683000688007F2D510E0FFF714FCA1
:102F3000009007E0FFF710FC0099411A41F2883039
:102F4000814287D86B48683000688007F2D42FB17F
:102F5000DAF8001021F08051CAF80010A0690028AA
:102F600076D0012809D0022807D04FF4137153A05E
:102F700003F090FEA0690028F2D0DBF80000C0F357
:102F800081000228A0697BD0022805D0C8F8609093
:102F9000FFF7E2FB04466FE0E06938B1B0F5800F5F
:102FA00004D040F2552145A003F074FE206A3F286A
:102FB00004D940F2562141A003F06CFE606AC0388B
:102FC000F02804D940F257213CA003F063FEA06A28
:102FD00002280AD0042808D0062806D0082804D0E1
:102FE0004FF4167135A003F055FEE06A801E0D28DF
:102FF00004D940F2592131A003F04CFEC8F860908A
:10300000FFF7AAFB074604E0FFF7A6FBC01B6428F6
:103010002FD828688001F7D4D4E907010843616AF2
:1030200094F82C20890141EA02610843A16A354ADB
:10303000490802EB014108433168334A1140084313
:1030400030600120C8F86000FFF786FB044606E008
:103050005CE000BFFFF780FB001B642809D82868EC
:103060008001F7D552E00BE0FFF776FB001B6428E8
:1030700002D90320BDE8F88F28688001F4D445E028
:103080000128F7D03068E26900F48001914213D141
:10309000226A00F03F0191420ED1616AC0F38812AA
:1030A000914209D1A26A00F44031914204D1E16A0F
:1030B00000F07060884229D00120DBE72E2E2F44DB
:1030C0007269766572732F53544D33324632787875
:1030D0005F48414C5F4472697665722F5372632F6B
:1030E00073746D3332663278785F68616C5F7263D7
:1030F000632E63000838024000004742800E4742BA
:10310000007000400000FFFF0080BCF00020B1E72D
:1031100010B5401EB0F1807F01D3012010BD4FF0EB
:10312000E02460610F21601702F058FF0020A061C9
:1031300007202061002010BD704770472DE9F05F27
:10314000044600683D4E3E4FDFF8F880DFF8F89007
:10315000DFF8F8A0DFF8F8B00D46B0421BD0B0F1B0
:10316000804F18D0B84216D0404514D0484512D0F0
:103170004FEAB64188420ED0364988420BD05045BE
:1031800009D0584507D03449884204D040F28671AE
:1031900032A003F07FFD286890B1102810D02028BD
:1031A0000ED030280CD040280AD0502808D06028F3
:1031B00006D0702804D040F2877128A003F06AFD81
:1031C0006868802805D020B14FF4F16123A003F096
:1031D00061FD94F83C0001282DD0012284F83C20A8
:1031E000022084F83D00216848688B6820F0700C4C
:1031F000286840EA0C0048602068B0420FD0B0F167
:10320000804F0CD0B8420AD0404508D0484506D07F
:10321000504504D0584502D00F49884204D169680E
:1032200023F080031943816084F83D20002084F856
:103230003C00BDE8F09F0220FBE7000000000140D9
:103240000004004000080040000C00400004014061
:103250000040014000140040001800402E2E2F4472
:103260007269766572732F53544D333246327878D3
:103270005F48414C5F4472697665722F5372632FC9
:1032800073746D3332663278785F68616C5F74692D
:103290006D5F65782E63000010B5040058D03F497B
:1032A000206888422BD0B0F1804F28D03C4988421A
:1032B00025D03C49884222D03B4988421FD03B4917
:1032C00088421CD03A49884219D03A49884216D0DF
:1032D0003949884213D03949884210D03849884248
:1032E0000DD0384988420AD03749884207D037493B
:1032F000884204D040F2131135A003F0CBFCA06843
:1033000060B110280AD0202808D0402806D06028B4
:1033100004D04FF48A712EA003F0BCFC206950B198
:10332000B0F5807F07D0B0F5007F04D040F21511D2
:1033300027A003F0AFFCA06930B1802804D04FF47F
:103340008B7123A003F0A6FC94F83D0010B107E0B8
:10335000012010BD002084F83C00204600F054F805
:10336000022084F83D00211D206802F07BF9012035
:1033700084F8460084F83E0084F83F0084F840005A
:1033800084F8410084F8420084F8430084F8440043
:1033900084F8450084F83D00002010BD0000014085
:1033A0000004004000080040000C004000100040F5
:1033B000001400400004014000400140004401406E
:1033C0000048014000180040001C00400020004060
:1033D0002E2E2F447269766572732F53544D3332FB
:1033E000463278785F48414C5F4472697665722F47
:1033F0005372632F73746D3332663278785F68610D
:103400006C5F74696D2E630008B5154A0168154834
:1034100091420ED1016841F0020101600068002272
:1034200000F00200009011461D20FFF727FA1D2032
:1034300010E00D4A914211D1016841F0080101608C
:103440000068002200F00800009011463220FFF7CB
:1034500015FA3220BDE80840FFF7DEB908BD0000CC
:103460000004004040380240000C00402DE9F05FAD
:10347000044600682F4D304E304FDFF8C480DFF82F
:10348000C490DFF8C4A0DFF8C4B0A84226D0B0F1E1
:10349000804F23D0B04221D0B8421FD040451DD02C
:1034A0004FEAB541884219D02949884216D048458B
:1034B00014D0504512D0274988420FD0264988425F
:1034C0000CD058450AD02549884207D02449884263
:1034D00004D040F2CF1123A003F0DCFB94F83D00B0
:1034E000012802D00120BDE8F09F022084F83D00B1
:1034F0002068C16841F00101C1602068A8420ED077
:10350000B0F1804F0BD0B04209D0B84207D040454F
:1035100005D0484503D0504501D0584504D18168B5
:1035200001F00701062903D0016841F001010160A3
:103530000020D8E7000001400004004000080040DF
:10354000000C004000040140004001400018004011
:10355000001400400044014000480140001C0040AD
:10356000002000402E2E2F447269766572732F530F
:10357000544D3332463278785F48414C5F4472692B
:103580007665722F5372632F73746D33326632789F
:10359000785F68616C5F74696D2E63002DE9F05F80
:1035A000054690F83C000C46012841D0012085F8E2
:1035B0003C00022085F83D0020684FF4805B5845B0
:1035C00016D0B0F5005F13D090B1102810D020288D
:1035D0000ED030280CD040280AD0502808D06028BF
:1035E00006D0702804D041F23341D1A003F052FB41
:1035F0002868816821F0770121F47F41816020688B
:10360000D949DA4ADA4BDB4EDB4FDFF870C3DFF81B
:1036100070834FF080494FF4004A50287ED00FDC71
:10362000202804D007DC0028FBD0102852D165E107
:103630000220BDE8F09F3028F9D04028F6D12AE1D9
:1036400060286CD0702873D0584544D04FF400588F
:103650004045EBD1286888420ED048450CD09042B6
:103660000AD0984208D0B04206D0B84204D041F205
:103670005E41AFA003F00EFBA06858B1584509D0D9
:10368000404507D0B0F5405F04D041F26141A8A0A9
:1036900003F000FB6068504509D040B1022806D015
:1036A0000A2804D041F26241A1A003F0F3FAE068D5
:1036B0000F2804D941F263419DA003F0EBFAD4E94D
:1036C0000121E368286802F0ABF82868816841F4BA
:1036D00080418160D8E028688842FBD04845F9D015
:1036E0009042F7D09842F5D0B042F3D0A549884235
:1036F000F0D0A5498842EDD0B842EBD06045E9D082
:10370000A2498842E6D0A2498842E3D04045E1D0B0
:10371000A0498842DED0A049884202E04DE07FE027
:1037200006E0D7D041F23F4181A003F0B3FAABE00D
:103730002868884212D0484510D090420ED0984256
:103740000CD0B0420AD0B84208D0604506D04045FF
:1037500004D041F2464176A003F09CFAA06860B123
:1037600058450AD0B0F5005F07D0B0F5405F04D0EF
:1037700041F249416EA003F08DFA6068504509D0CE
:1037800040B1022806D00A2804D041F24A4168A07C
:1037900003F080FAE0680F2804D941F24B4164A09D
:1037A00003F078FAD4E90121E368286802F038F8D8
:1037B0002868816841F077018BE72868884212D039
:1037C000484510D090420ED098420CD0B0420AD05A
:1037D000B84208D0604506D0404504D041F272415D
:1037E00053A003F057FA6068504509D040B1022851
:1037F00006D00A2804D041F275414DA003F04AFAE0
:10380000E0680F2804D941F2764149A003F042FA5A
:10381000E2686168286802F0C5F95021286831E043
:103820002868884212D0484510D090420ED0984265
:103830000CD0B0420AD0B84208D0604506D040450E
:1038400004D041F282413AA003F024FA6068504566
:1038500009D040B1022806D00A2804D041F285419F
:1038600033A003F017FAE0680F2804D941F286412B
:103870002FA003F00FFAE2686168286802F0A3F94C
:103880006021286801F0D6FF012085F83D00002066
:1038900085F83C00CDE62868884212D0484510D013
:1038A00090420ED098420CD0B0420AD0B84208D014
:1038B000604506D0404504D041F292411CA003F07F
:1038C000E9F96068504509D040B1022806D00A28BD
:1038D00004D041F2954116A003F0DCF9E0680F280E
:1038E00004D941F2964112A003F0D4F9E26861686C
:1038F000286802F057F940212868C3E72868884201
:1039000012D0484510D090420ED098420CD0B04210
:103910000AD0B84208D0604506D0404504D041F2F4
:10392000A54103A003F0B6F921682868AAE70000C2
:103930002E2E2F447269766572732F53544D333295
:10394000463278785F48414C5F4472697665722FE1
:103950005372632F73746D3332663278785F6861A7
:103960006C5F74696D2E630000000140000400402C
:1039700000080040000C00400004014000400140ED
:1039800000180040001000400014004000440140B6
:1039900000480140001C0040002000402DE9F0419B
:1039A0000D4604007ED076492068884213D0B0F1DD
:1039B000804F10D0734988420DD0734988420AD095
:1039C0007249884207D07249884204D040F68E314D
:1039D00070A003F05FF9A06860B110280AD0202819
:1039E00008D0402806D0602804D040F68F3169A066
:1039F00003F050F9206950B1B0F5807F07D0B0F5E1
:103A0000007F04D04FF4396162A003F043F9A0694C
:103A100030B1802804D040F691315EA003F03AF92D
:103A20002868012808D0022806D0032804D040F6D0
:103A3000923158A003F02EF9A868012808D0022876
:103A400006D0032804D040F6933152A003F022F9A7
:103A5000A869012808D0022806D0032804D040F61F
:103A600094314CA003F016F9686830B1022804D0F4
:103A700040F6953147A003F00DF9686930B102288E
:103A800004D040F6963143A003F004F9E86860B131
:103A900004280AD0082808D00C2806D040F6973110
:103AA0003CA000E022E003F0F5F8E86950B10428FA
:103AB00008D0082806D00C2804D040F6983135A04C
:103AC00003F0E8F828690F2804D940F6993131A0AD
:103AD00003F0E0F8286A0F2804D940F69A312DA0A7
:103AE00003F0D8F894F83D0018B108E00120BDE8D3
:103AF000F081002084F83C00204600F067F80220A6
:103B000084F83D002068816844F207029143816097
:103B1000211D206801F0A6FD226890689169166A4F
:103B20002B68AF69034340F20330814341EA072128
:103B3000A868EF6908434FF6FC418843E96840EA0A
:103B40000720014328692F6A000140EA0730084333
:103B500069686D6926F0AA0646EA0515294393604F
:103B60002268906154F8460B0162012004F81F0995
:103B7000E0752076E0762077A0750020B7E700009A
:103B8000000001400004004000080040000C00401C
:103B9000000401402E2E2F447269766572732F53F4
:103BA000544D3332463278785F48414C5F447269F5
:103BB0007665722F5372632F73746D333266327869
:103BC000785F68616C5F74696D2E630010B586B0B4
:103BD000044614216846FCF754FB174920688842C4
:103BE00028D116480021026842F0040202600068F1
:103BF00000F00400059011481038026842F00802F5
:103C000002600068012200F0080005904FF4405067
:103C100000900220CDE90102CDE903106946084871
:103C2000FEF7CAFB002211461E20FEF727FE1E20CB
:103C3000FEF7F2FD06B010BD00080040403802401B
:103C4000000C02402DE9F04790F83E80894604467A
:103C500090F83F7090F8426090F843500068374900
:103C6000884213D0B0F1804F10D0354988420DD032
:103C7000344988420AD03449884207D033498842BF
:103C800004D040F6E54132A003F004F80220B9F177
:103C9000000F06D0B9F1040F16D0B8F1010F27D1EB
:103CA00020E0B8F1010F23D1012E21D184F83E008C
:103CB00084F8420001220021206801F037FD2068CD
:103CC000C16841F0020131E0012F11D1012D0FD166
:103CD00084F83F0084F8430001220421206801F0A9
:103CE00025FD1FE0012F03D1012E01D1012D02D0AE
:103CF0000120BDE8F08784F83E0084F83F0084F896
:103D0000420084F8430001220021206801F00EFDEA
:103D100001220421206801F009FD2068C16841F0FA
:103D20000201C1602068C16841F00401C1602068DF
:103D3000016841F0010101600020DAE70000014064
:103D40000004004000080040000C00400004014056
:103D50002E2E2F447269766572732F53544D333271
:103D6000463278785F48414C5F4472697665722FBD
:103D70005372632F73746D3332663278785F686183
:103D80006C5F74696D2E6300704770B504460068FF
:103D900001694FF00005C943890715D4C168C943BB
:103DA000890711D4E91E016101202077206880690C
:103DB0008007204602D0FFF7E7FF04E000F0C0F8DC
:103DC000204600F0B0FA257720680169C943490709
:103DD00017D4C168C943490713D46FF004010161C6
:103DE000022020772068806910F4407F204602D0AE
:103DF000FFF7CAFF04E000F0A3F8204600F093FAB2
:103E0000257720680169C943090716D4C168C943E9
:103E1000090712D46FF0080101610420207720689F
:103E2000C0698007204602D0FFF7AEFF04E000F033
:103E300087F8204600F077FA257720680169C943A2
:103E4000C90617D4C168C943C90613D46FF010015D
:103E50000161082020772068C06910F4407F204667
:103E600002D0FFF791FF04E000F06AF8204600F06E
:103E70005AFA257720680169C943C90708D1C16882
:103E8000C943C90704D1891E0161204600F04CFADC
:103E900020680169C943090609D4C168C9430906F4
:103EA00005D46FF0800101612046FFF745F92068D5
:103EB0000169C943490609D4C168C943490605D403
:103EC0006FF040010161204600F02FFA206801697F
:103ED000C94389060BD4C168C943890607D46FF06A
:103EE000200101612046BDE87040FFF726B970BD92
:103EF00010B586B0044614216846FCF7C2F90D4996
:103F00002068884214D10C480021026842F0020265
:103F10000260006800F0020005900120009002207D
:103F2000CDE90101CDE9031069460448FEF744FAE2
:103F300006B010BD000400403038024000040240CA
:103F4000704700002DE9F0475FEA020A0D4604467B
:103F500010D0BAF1040F0DD0BAF1080F0AD0BAF19F
:103F60000C0F07D0BAF13C0F04D041F2280178A021
:103F700002F090FE2868602806D0702804D041F234
:103F8000290173A002F086FEA86830B1022804D08F
:103F900041F22A016EA002F07DFE286930B10428AA
:103FA00004D041F22B016AA002F074FE94F83C00A8
:103FB00001281AD001207449744B754E754FDFF8F3
:103FC000D8C1DFF8D891764A84F83C004FF0804899
:103FD000BAF1000F0CD0BAF1040F3ED0BAF1080FBD
:103FE00066D0BAF10C0F62D187E00220BDE8F087FD
:103FF000206888421ED040451CD098421AD0B0425A
:1040000018D0B84216D0604514D0484512D0654942
:1040100088420FD0644988420CD090420AD063494C
:10402000884207D06249884204D041F2350148A055
:1040300002F030FE2946206801F004FC2068816906
:1040400041F0080181612068816921F004018161EA
:10405000206881692A69114328E02068884212D0CB
:10406000404510D098420ED0B0420CD0B8420AD091
:10407000604508D0484506D0904204D041F2460140
:1040800033A002F007FE2946206801F04DFC2068AD
:10409000816941F4006181612068816921F4806156
:1040A0008161206881692A6941EA022181614AE0CF
:1040B000206888420ED040450CD098420AD0B042C9
:1040C00008D0B84206D0604504D041F2570120A084
:1040D00002F0E0FD2946206801F09CFC2068C169DF
:1040E00041F00801C1612068C16921F00401C1618A
:1040F0002068C1692A69114324E0206888420ED0F3
:1041000040450CD098420AD0B04208D0B84206D000
:10411000604504D041F268010DA002F0BBFD2946C4
:10412000206801F0EDFC2068C16941F40061C161C3
:104130002068C16921F48061C1612068C1692A6970
:1041400041EA0221C161002084F83C004EE70000F2
:104150002E2E2F447269766572732F53544D33326D
:10416000463278785F48414C5F4472697665722FB9
:104170005372632F73746D3332663278785F68617F
:104180006C5F74696D2E6300000001400004004004
:1041900000080040000C00400004014000400140C5
:1041A000001800400044014000480140001C00404D
:1041B0000020004010B5040058D03F4920688842D4
:1041C0002BD0B0F1804F28D03C49884225D03C49C3
:1041D000884222D03B4988421FD03B4988421CD0AC
:1041E0003A49884219D03A49884216D0394988421A
:1041F00013D03949884210D0384988420DD0384907
:1042000088420AD03749884207D03749884204D0CB
:1042100040F2135135A002F03DFDA06860B11028B6
:104220000AD0202808D0402806D0602804D040F2C8
:1042300014512EA002F02EFD206950B1B0F5807F00
:1042400007D0B0F5007F04D040F2155127A002F04E
:1042500021FDA06930B1802804D040F2165123A07E
:1042600002F018FD94F83D0010B107E0012010BDE8
:10427000002084F83C00204600F054F8022084F826
:104280003D00211D206801F0EDF9012084F8460071
:1042900084F83E0084F83F0084F8400084F8410030
:1042A00084F8420084F8430084F8440084F8450010
:1042B00084F83D00002010BD0000014000040040D3
:1042C00000080040000C00400010004000140040B6
:1042D000000401400040014000440140004801400A
:1042E00000180040001C0040002000402E2E2F44EB
:1042F0007269766572732F53544D33324632787833
:104300005F48414C5F4472697665722F5372632F28
:1043100073746D3332663278785F68616C5F74698C
:104320006D2E630070477047704770477047704745
:10433000F8B5026804461068D168536910F00F0F91
:104340004FF0000553D003F0010601F49077374396
:104350005FD0C20705D0CA0503D5226C42F0010226
:104360002264420705D5DA0703D0226C42F002022C
:104370002264820705D5DA0703D0226C42F00402DA
:104380002264020707D501F02002324303D0226CD9
:1043900042F008022264226C002A34D0800604D540
:1043A000880602D5204601F047FC20684069216C50
:1043B000C0F38010090700D430B3204601F024FC7C
:1043C0002068416949061BD5416921F040014161DE
:1043D000A06BA8B159490165A06BFDF7C8FF002883
:1043E00011D0A06B016D01B0BDE8F0400847830615
:1043F0000FD58B060DD52046BDE8F84001F01CBC5A
:104400002046FFF794FFF8BD2046FFF790FF256494
:10441000F8BD266B2023012E53D1C60651D5CE06FA
:104420004FD5106850680090506940062BD5A16B9D
:10443000086840680004000CEAD0A68D8642E7D9DF
:10444000E085C869B0F5807F18D0D06820F480700E
:10445000D0602068416921F0010141612068416913
:1044600021F04001416184F83E3025632068C16835
:1044700021F01001C160A06BFDF730FFA08DE18D30
:10448000401A81B219E0A08DE18D401A81B2E08D11
:104490000028BDD00029BBD0D06820F49070D06037
:1044A0002068426922F00102426184F83E302563AF
:1044B0002068C26822F01002C2602046FFF736FF73
:1044C000F8BD05062BD50D0629D594F83D00212809
:1044D000F6D1A068B0F5805F01D12069B0B1206A43
:1044E000411C2162216800784860E08C401E000475
:1044F000000CE084E4D12068C16821F08001C16033
:104500002068C16841F04001C160F8BD206A0088A0
:10451000C0F308005060206A801C2062E5E7400676
:10452000F3D54806F1D5D168204621F04001D1608D
:1045300084F83D3000F0C7F9F8BD0000F95B0008D1
:1045400070B5040023D0A0693B4900283B4A3C4B8E
:104550003C4D20681DD088420CD090420AD0984231
:1045600008D0A84206D040F26B1137A002F092FBAF
:10457000A06908B3A069B0F5807F1DD0B0F5007FB9
:104580001AD0B0F5407F17D04FF4B67111E001207A
:1045900070BD884210D090420ED098420CD039495C
:1045A000884209D03849884206D0A84204D04FF446
:1045B000B87125A002F06EFBA06838B1B0F5805F3D
:1045C00004D04FF4B97120A002F064FBE06938B167
:1045D000B0F5004F04D040F273111BA002F05AFB5B
:1045E00094F83D00002520B984F83C50204600F0A6
:1045F0004DF8242084F83D002068C16821F4005162
:10460000C160204601F074FB2068016921F49041EB
:1046100001612068416921F02A0141612068C16877
:1046200041F40051C1602564202084F83D0084F8E5
:104630003E00002070BD000000100140004400401A
:1046400000480040001401402E2E2F447269766508
:1046500072732F53544D3332463278785F48414C51
:104660005F4472697665722F5372632F73746D3372
:1046700032663278785F68616C5F756172742E6340
:1046800000000000004C004000500040F0B587B032
:10469000044614216846FBF7F4FD3E493C4E27686A
:1046A00000243C4B1039032202253B48B74220D15D
:1046B0001C6844F400241C601B6803F40023059369
:1046C0000B6843F001030B60096801F001010591DB
:1046D0000121CDE90212CDE90025082104916946A6
:1046E000FDF76AFE002211463420FEF7C7F8342099
:1046F00026E0DFF8A8C00726674525D1254B1B1DFE
:104700001F6847F010071F601B6803F01003059334
:104710000B6843F001030B600968CDE9024201F028
:10472000010105914FF4C061CDE900150496694679
:10473000FDF742FE002211462520FEF79FF82520B6
:10474000FEF76AF807B0F0BDDFF854C06745F9D14D
:104750001F6847F400371F601B6803F4003305939C
:104760000B6843F001030B600968CDE9024201F0D8
:10477000010105910C21CDE9001504966946FDF76C
:104780001BFE002211462620FEF778F82620D7E7E8
:10479000004C004040380240000002400010014040
:1047A0000044004090F83E30202B0ED159B152B158
:1047B00090F83C30012B08D0012380F83C300023D6
:1047C000036301F073BB01207047022070470000B3
:1047D0000D4910B5CA680D4972B1012A12D100689D
:1047E00088420FD100F0AAFA07490122BDE8104023
:1047F000091D0748FFF7D6BF0068884202D100F0C4
:1048000091FAF1E710BD0000000000200010014007
:10481000340200202DE9F843044690F83D001F467D
:1048200016460D4620284CD1C5B1BEB194F83C00C7
:10483000012846D0012084F83C004FF00008C4F85D
:104840004080212084F83D00FDF786FFA684814644
:10485000E684A068B0F5805F03D004E00120BDE8E5
:10486000F883206928B12E465FF0000584F83C806B
:104870000EE00026FAE78021204601F032FBA0B9C5
:10488000AEB116F8010B21684860E08C401EE08450
:10489000E08C4B464FF0000200970028EBD14FF020
:1048A0004001204601F01DFB30B10320D7E735F869
:1048B000020BC0F30800E6E7202084F83D0000204A
:1048C000CDE70220CBE77047FEE70000F0B58DB0E2
:1048D0000024089409940A94202168460B94FBF75D
:1048E000D0FC224820490125C0E9001405618460FC
:1048F000047680F820401E49C0E90A140226C661E9
:10490000C46080F830404561FDF74AF908B172B6DD
:10491000FEE70A270897CDE9095408A91348FCF7D0
:1049200075FF08B172B6FEE70D20CDE9080608A9AB
:104930000E48FCF76BFF08B172B6FEE7CDE90075D3
:104940000C480294CDE906048DF8154004958DF8C5
:104950001440694605480394FCF7A8FD002801D0DF
:1049600072B6FEE70DB0F0BD00220140BC00002091
:104970000100000F01000F002DE9F04186B0142165
:104980006846FBF77EFC42480024016841F01001B4
:104990000160016801F010010591016841F0040116
:1049A0000160016801F004010591016841F0800196
:1049B0000160016801F080010591016841F0010189
:1049C0000160016801F001010591016841F00201F7
:1049D0000160016801F002010591016841F00801E0
:1049E00001600068DFF8AC8000F008004FF47866E2
:1049F0000590002231464046FDF778FE4FF27F00D9
:104A00000325CDE90005694602944046FDF7D4FC34
:104A100043F6F670CDE90005694602941E48FDF79D
:104A2000CBFC49F6E010CDE90005694602941B482D
:104A3000FDF7C2FC4FF6C670CDE90005184F694678
:104A400002943846FDF7B8FC00960126CDE90164D2
:104A5000694640460394FDF7AFFC4CF61F70CDE964
:104A60000005104D694602942846FDF7A5FCE0209C
:104A70008DE8510069462846FDF79EFC38208DE8F8
:104A8000510069463846FDF797FC06B0BDE8F08155
:104A9000303802400010024000080240000002408E
:104AA00000040240000C024010B58EB000240794B0
:104AB000089409940A940B941C2168460C94FBF703
:104AC000E0FB1E481C49C0E900144FF6FF71C0E925
:104AD000024104618461FEF7DFFB08B172B6FEE7B4
:104AE0004FF48050079007A91448FEF757FD08B10E
:104AF00072B6FEE71148FFF75DFB08B172B6FEE73C
:104B00000B940BA90D480C94FEF718FB08B172B674
:104B1000FEE76020CDE900040294082269460748B8
:104B20000494FFF70FFA08B172B6FEE70348FFF7E7
:104B3000DFF90EB010BD0000000400401801002095
:104B400010B58CB024216846FBF79BFB0024164867
:104B5000099414490A94C0E900144FF6FF71C0E9A2
:104B60000241046184610320CDE900040120CDE904
:104B700002040494CDE90540079469460A48089464
:104B8000FEF70CFF08B172B6FEE7099409A90648C2
:104B90000A94FEF7D3FA002801D072B6FEE70CB0F3
:104BA00010BD0000000800406001002010B586B074
:104BB0000024174800940194029403940494134928
:104BC000059401604EF65F21C0E901142721C0E978
:104BD00003148461FEF760FB08B172B6FEE74FF480
:104BE0008050009069460A48FEF7D8FC08B172B6BA
:104BF000FEE7049404A906480594FEF79FFA0028EE
:104C000001D072B6FEE706B010BD0000000C0040F7
:104C1000A8010020FEE7FEE72DE9F04102F086F84A
:104C2000354C0028E06565D034A102F071F82066AB
:104C3000C1680025DFF8C8800126102913D100695A
:104C400030A1FBF735FB10B10022256207E0206E92
:104C50002DA10069FBF72CFB28B1012226628021DF
:104C60004046FDF743FD29A1E06D02F051F8606672
:104C7000C168102915D1006922A1FBF719FB4FF477
:104C8000807710B10022656207E0606E1EA10069A6
:104C9000FBF70EFB28B10122666239464046FDF75C
:104CA00025FD1BA1E06D02F033F8A066C168102954
:104CB00003D10069FBF7F0FCA06216A1E06D02F0E1
:104CC00027F8E066C168102903D10069FBF7E4FC0E
:104CD000E06211A1E06D02F01BF82067C1681029A5
:104CE00003D10069FBF7D8FC2063E06DBDE8F0411B
:104CF00001F0EABFBDE8F08100000020544231001D
:104D00000010024030000000310000005442320028
:104D100043310000433200004D6F64650000000025
:104D2000704700000349044BC8780A791A54401CA4
:104D3000C870704700000020BC02002070B5234CF2
:104D4000234A20462379406F411C0A2B135401D07B
:104D5000616770BD00251E491EA0656701F002F95C
:104D600021A11B48FBF7A4FA10B10120607023E0D9
:104D700021A11748FBF79CFA08B165701CE023A13C
:104D80001348FBF795FAD0B124A11148FBF7C6FAF6
:104D900022A10020FBF7C2FA20A10020FBF7BEFAF7
:104DA0001FA10020FBF7BAFA054601461DA001F03D
:104DB000D9F82846FFF730FFFDF7CEFC2061FDF75C
:104DC000CBFC2061BDE8704002F034B80000002048
:104DD000B004002044617461204D5154545F585117
:104DE000313A25730D0A00004D515454434F4E4E35
:104DF00045435445440000004D51545444495343E5
:104E00004F4E4E4543544544000000002B4D515435
:104E10005453554252454356000000002C000000F8
:104E20000A00000044415441204D5154545F5851F0
:104E3000323A2025730D0A00704700002DE9FF4F1C
:104E4000ADF57B7D8E46002001461AAB01AC33AD3B
:104E50000DF5987C65AE7EAF0DF51779B0AA0DF50E
:104E6000497A0DF5627B1954215429540CF800102D
:104E70003154395409F8001011540AF800100BF895
:104E80000010401C6428EEDB7046FBF748FE02462B
:104E90000B4662A133A801F08DF862A14CA8FD9ADF
:104EA00001F088F8FE98FBF73AFE02460B465BA13C
:104EB00065A801F07FF85BA17EA8DDF8202401F051
:104EC00079F858A197A8DDF8242401F073F855A1CA
:104ED000B0A8DDF8282401F06DF852A1C9A8DDF8CA
:104EE0002C2401F067F850A101A8FBF7D5F933A9EC
:104EF00001A8FBF7D1F94EA101A8FBF7CDF94DA10F
:104F000001A8FBF7C9F94CA901A8FBF7C5F948A10D
:104F100001A8FBF7C1F949A101A8FBF7BDF965A9F3
:104F200001A8FBF7B9F942A101A8FBF7B5F946A121
:104F300001A8FBF7B1F97EA901A8FBF7ADF93CA1E7
:104F400001A8FBF7A9F942A101A8FBF7A5F997A9C8
:104F500001A8FBF7A1F936A101A8FBF79DF93EA135
:104F600001A8FBF799F9B0A901A8FBF795F930A1C1
:104F700001A8FBF791F93AA101A8FBF78DF9C9A99E
:104F800001A8FBF789F938A101A8FBF785F937A13A
:104F900001A8FBF781F901A935A000F0E3FF01A802
:104FA000FBF798F902461FA1E2A801F003F834A12B
:104FB0001AA8FBF771F91AA8FB99FBF76DF91CA168
:104FC0001AA8FBF769F9E2A91AA8FBF765F931A15C
:104FD0001AA8FBF761F91AA930A000F0C3FF03205B
:104FE00041F28835009000232A4630A11AA800F02B
:104FF00035F901F02FFF2F4C207848B9052000909B
:1050000000232A462CA101A800F028F901F022FF74
:105010000120E0600DF57F7DBDE8F08F25302E3258
:1050200066000000256400007B224E44223A2200E4
:10503000222C0000224441223A22000022646F63A5
:10504000616463223A22000022544231223A220053
:1050500022544232223A2200224331223A220000D4
:10506000224332223A220000227D00000D0A000075
:10507000446174614A736F6E3A2025730A00000020
:1050800041542B4D5154545055425241573D302CB0
:10509000220000002C302C310D0A00004D515454D8
:1050A0005055425241573A2025730A004F4B0D0A82
:1050B0000D0A3E00000000202B4D51545450554223
:1050C0003A4F4B007FB54FF4FA750D4CFDF744FB9A
:1050D0002169401AA842F9D3607860B101F0D6FC8A
:1050E00004F120000FC88DE80F0004F11401A06D39
:1050F0000EC9FFF7A3FEFDF72FFB20617FBD000067
:10510000000000202DE9FF5F1E4690468246DDF834
:1051100038B001F09FFEFDF71FFBDFF8C8900025B7
:10512000C9F810004FF496700446C9F80C6000F0FE
:10513000EDFF0646002007463754401C2146A0429A
:10514000FAD3534628A2304600F01CFF3046FBF746
:10515000C1F882B24FF47A7A534631462348FFF7BA
:1051600059FB314622A000F0FDFEFDF7F5FA4C4652
:10517000C9F81000FDF7F0FA2169411A414510D332
:1051800030466D1CFBF7A6F882B2534631461748ED
:10519000FFF740FB31461DA000F0E4FEFDF7DCFA0E
:1051A0002061124801998830FBF782F840B120A0B5
:1051B00000F0D8FE01F04EFE01202070607008E083
:1051C0005D45D7D31FA000F0CDFE2770677001F0BA
:1051D00041FEFDF7C1FA206104B03046BDE8F05F42
:1051E00000F010BF000000202573000034020020F2
:1051F00053656E642041542D436F6D6D616E647311
:1052000020446174613A2025730D0A0053656E6471
:105210002041542D436F6D6D616E64732044617441
:10522000612054696D654F75743A2025730D0A002D
:105230004D51545420436F6E6E656374204F4B0D77
:105240000A0000004D51545420436F6E6E65637424
:10525000204552524F520D0A000000002DE9FF5F19
:105260001E4690468246DDF838B001F0F3FDFDF7AA
:1052700073FADFF8CC900025C9F810004FF496704F
:105280000446C9F80C6000F041FF064600200746BE
:105290003754401C2146A042FAD3534629A2304637
:1052A00000F070FE3046FBF715F882B24FF47A7AC0
:1052B000534631462448FFF7ADFA314623A000F0AB
:1052C00051FEFDF749FA4C46C9F810004FF00109AC
:1052D000FDF742FA2169411A414510D330466D1C51
:1052E000FAF7F8FF82B2534631461748FFF792FAB1
:1052F00031461DA000F036FEFDF72EFA206112485F
:1053000001998830FAF7D4FF40B121A000F02AFEBD
:1053100001F0A0FD277084F8019008E05D45D7D327
:105320001FA000F01FFE84F8009001F093FDFDF730
:1053300013FA206104B03046BDE8F05F00F062BEB1
:1053400000000020257300003402002053656E64C5
:105350002041542D436F6D6D616E64732044617400
:10536000613A2025730D0A0053656E642041542D67
:10537000436F6D6D616E64732053656E642044618C
:105380007461204D5154543A2025730D0A000000D9
:1053900053454E44204D515454204F4B0D0A0000AC
:1053A00053454E44204D515454204552524F520DB6
:1053B0000A0000002DE9F0418EB01F4615468846D0
:1053C0000646FDF7C9F9234C00210A46C4E90370DB
:1053D00068464254491C3229FBDB33461EA2322167
:1053E00000F0D0FD6846FAF775FF82B24FF47A7686
:1053F000334669461A48FFF70DFA694619A000F0CE
:10540000B1FDFDF7A9F92061FDF7A6F92169401A60
:10541000A8420FD36846FAF75DFF82B23346694669
:105420000F48FFF7F7F9694616A000F09BFDFDF75E
:1054300093F920610A4841468830FAF739FF00287D
:10544000E2D0414619A000F08DFD01F003FD0EB041
:10545000BDE8F0810000002025730D0A0000000067
:105460003402002053656E642041542D436F6D6DEE
:10547000616E64732053657474696E673A20257396
:105480000D0A000053656E642041542D436F6D6D0D
:10549000616E64732053657474696E672054696D1E
:1054A0006553656E643A2025730D0A005265706F6E
:1054B0006E73652053657474696E673A2025730DA9
:1054C0000A00000070B542F21074002322461EA1AB
:1054D0001EA0FFF76FFF40F6B8352846FCF75AFFCD
:1054E00000234FF4967218A11BA0FFF763FF284614
:1054F000FCF750FF4FF4FA660023324612A118A0C1
:10550000FFF758FF2846FCF745FF002332460EA15F
:1055100015A0FFF74FFF2846FCF73CFF002322466B
:1055200015A119A0FFF746FF2846FCF733FF00231B
:10553000324605A11EA0FFF73DFF2846FCF72AFFD3
:105540001F490020087070BD4F4B000041542B5282
:1055500053540D0A0000000041540D0A00000000E1
:10556000415445300D0A000041542B43574D4F44E0
:10557000453D312C310D0A005749464920434F4ED5
:105580004E4543544544000041542B43574A415033
:105590003D2254502D4C696E6B5F39423045222CB0
:1055A000223339303732313737220D0A00000000FC
:1055B00041542B4349504D55583D300D0A000000D1
:1055C00000000020FDF7CEB830B591B0302168461C
:1055D000FAF757FE14210CA8FAF753FE01200390A6
:1055E0000224102004900094002506940D20CDE99B
:1055F0000750C320CDE9090404200B906846FDF74D
:1056000057FB08B172B6FEE70CA90F2081E8310004
:105610004FF4A0500F904FF48050109003210CA82D
:10562000FDF7BCF9002801D072B6FEE711B030BD1D
:10563000704700000148FEF7A8BB000018010020D9
:105640000148FEF7A2BB0000600100200148FEF700
:105650009CBB0000A80100200148FCF744BD0000ED
:1056600004010020F0B50268254C264D264E274F38
:10567000274B4FF0804CA04209D0604507D0A8428C
:1056800005D0B04203D0B84201D0984204D122F0F4
:10569000700E4A6842EA0E02A0421BD0604519D043
:1056A000A84217D0B04215D0B84213D0984211D0BA
:1056B000184DA8420ED0184DA8420BD0174DA84245
:1056C00008D0174DA84205D0164DA84202D0164D5D
:1056D000A84203D122F44075CA682A434D6922F0DA
:1056E00080022A4302608A68C2620A688262A0421B
:1056F00001D0984201D10969016301214161F0BDE6
:10570000000001400004004000080040000C004080
:1057100000040140004001400044014000480140B5
:1057200000180040001C00400020004070B50446F6
:10573000224816460D46844225D0B4F1804F22D02F
:105740001F4884421FD01F4884421CD01E488442F8
:1057500019D01E48844216D01D48844213D01D48DB
:10576000844210D01C4884420DD01C4884420AD088
:105770001B48844207D01B48844204D041F60C5198
:1057800019A001F087FA65B1042D0AD0082D08D0C0
:105790000C2D06D03C2D04D041F60D5112A001F085
:1057A00079FA05F01F010120226A884082432262B3
:1057B000206A8E403043206270BD0000000001402E
:1057C0000004004000080040000C004000040140BC
:1057D00000400140004401400048014000180040E2
:1057E000001C0040002000402E2E2F447269766578
:1057F00072732F53544D3332463278785F48414CA0
:105800005F4472697665722F5372632F73746D33C0
:1058100032663278785F68616C5F74696D2E630000
:1058200010B5846842EA032224F47F440A432243E9
:10583000826010BD826822F070020A4342F00701C4
:10584000816070472DE9F0470446006A0D4620F05C
:1058500001002062206A6768A169AE6821F07302C6
:10586000296820F00200DFF880900643DFF87CA072
:1058700041EA02084C4501D054450ED1E86830B1E8
:10588000082804D041F6422119A001F003FAE86883
:1058900026F00801084320F004064C4501D0544589
:1058A00019D1A869B0F5007F05D020B141F64F218C
:1058B0000FA001F0EFF96869B0F5807F05D020B145
:1058C00041F650210AA001F0E5F927F4407168691A
:1058D000AF69084307436760C4F81880686860636D
:1058E0002662BDE8F087000000000140000401408E
:1058F0002E2E2F447269766572732F53544D3332B6
:10590000463278785F48414C5F4472697665722F01
:105910005372632F73746D3332663278785F6861C7
:105920006C5F74696D2E63002DE9F0470446006AD0
:105930000D4620F010002062206A6768A1692A687D
:1059400021F4E64141EA0228A968DFF8889020F0B6
:105950002000DFF884A040EA01164C4501D05445F0
:105960000FD1E86830B1082804D041F68D211BA082
:1059700001F090F9E96826F0800040EA011020F07B
:1059800040064C4501D054451BD1A869B0F5007FB5
:1059900005D020B141F69B2110A001F07BF9686988
:1059A000B0F5807F05D020B141F69C210BA001F01D
:1059B00071F9696927F4406040EA8100A96940EA09
:1059C00081076760C4F818806868A0632662BDE834
:1059D000F087000000000140000401402E2E2F44FB
:1059E0007269766572732F53544D3332463278782C
:1059F0005F48414C5F4472697665722F5372632F22
:105A000073746D3332663278785F68616C5F746985
:105A10006D2E63002DE9F0470446006A0D4620F420
:105A200080702062206A6768E169DFF8949021F055
:105A30007302296820F4007041EA0208A968DFF8BF
:105A400084A040EA01264C4501D054450FD1E868B6
:105A500030B1082804D041F6D8211BA001F01AF972
:105A6000E96826F4006040EA012020F480664C4595
:105A700001D054451BD1A869B0F5007F05D020B1F5
:105A800041F6E52110A001F005F96869B0F5807FC5
:105A900005D020B141F6E6210BA001F0FBF86969C1
:105AA00027F4405040EA0110A96940EA01176760F5
:105AB000C4F81C806868E0632662BDE8F0870000D7
:105AC00000000140000401402E2E2F4472697665CB
:105AD00072732F53544D3332463278785F48414CBD
